:020000040800F2
:1000000000C0002079940008258700083187000887
:10001000378700083D87000843870008000000007C
:1000200000000000000000000000000049870008F8
:100030005587000800000000618700086D870008F0
:10004000C1940008C1940008C1940008C19400083C
:10005000C1940008C1940008C1940008C19400082C
:10006000C1940008C1940008C1940008C19400081C
:10007000C1940008C1940008C1940008C19400080C
:10008000C1940008C1940008C1940008C1940008FC
:10009000C1940008C1940008C1940008C1940008EC
:1000A000C1940008C1940008C1940008C1940008DC
:1000B000C1940008C1940008C1940008C1940008CC
:1000C000C1940008C1940008C1940008C1940008BC
:1000D000C1940008C1940008C1940008C1940008AC
:1000E000C1940008C1940008C1940008C19400089C
:1000F000C1940008C1940008C1940008C19400088C
:10010000C1940008C1940008C1940008C19400087B
:10011000C1940008C1940008C1940008C19400086B
:10012000C1940008C1940008C1940008C19400085B
:1001300000000000000000000000000000000000BF
:1001400000000000000000000000000000000000AF
:10015000000000000000000000000000000000009F
:10016000000000000000000000000000000000008F
:10017000000000000000000000000000000000007F
:10018000000000000000000000000000000000006F
:10019000000000000000000000000000000000005F
:1001A000000000000000000000000000000000004F
:1001B000000000000000000000000000000000003F
:1001C000000000000000000000000000000000002F
:1001D000000000000000000000000000000000001F
:0401E0005FF8E0F1F3
:1001E80010B5054C237833B9044B13B10448AFF369
:1001F80000800123237010BD700000200000000063
:100208004CA7000808B5034B1BB103490348AFF3DB
:10021800008008BD00000000740000204CA7000802
:1002280081F0004102E000BF83F0004330B54FEA9F
:1002380041044FEA430594EA050F08BF90EA020F0C
:100248001FBF54EA000C55EA020C7FEA645C7FEA9F
:10025800655C00F0E2804FEA5454D4EB5555B8BFC2
:100268006D420CDD2C4480EA020281EA030382EA33
:10027800000083EA010180EA020281EA0303362DC5
:1002880088BF30BD11F0004F4FEA01314FF4801C98
:100298004CEA113102D0404261EB410113F0004FAA
:1002A8004FEA03334CEA133302D0524263EB430361
:1002B80094EA050F00F0A780A4F10104D5F1200EFF
:1002C8000DDB02FA0EFC22FA05F2801841F100015A
:1002D80003FA0EF2801843FA05F359410EE0A5F12E
:1002E80020050EF1200E012A03FA0EFC28BF4CF05F
:1002F800020C43FA05F3C01851EBE37101F0004515
:1003080007D54FF0000EDCF1000C7EEB00006EEB21
:100318000101B1F5801F1BD3B1F5001F0CD34908AB
:100328005FEA30004FEA3C0C04F101044FEA445202
:1003380012F5800F80F09A80BCF1004F08BF5FEA89
:10034800500C50F1000041EB045141EA050130BD69
:100358005FEA4C0C404141EB010111F4801FA4F10C
:100368000104E9D191F0000F04BF01460020B1FA61
:1003780081F308BF2033A3F10B03B3F120020CDA99
:100388000C3208DD02F1140CC2F10C0201FA0CF077
:1003980021FA02F10CE002F11402D8BFC2F1200CDC
:1003A80001FA02F120FA0CFCDCBF41EA0C01904092
:1003B800E41AA2BF01EB0451294330BD6FEA0404DB
:1003C8001F3C1CDA0C340EDC04F11404C4F12002C6
:1003D80020FA04F001FA02F340EA030021FA04F3D8
:1003E80045EA030130BDC4F10C04C4F1200220FA2F
:1003F80002F001FA04F340EA0300294630BD21FA6D
:1004080004F0294630BD94F0000F83F4801306BF32
:1004180081F480110134013D4EE77FEA645C18BF26
:100428007FEA655C29D094EA050F08BF90EA020FBD
:1004380005D054EA000C04BF1946104630BD91EAB5
:10044800030F1EBF0021002030BD5FEA545C05D1B8
:100458004000494128BF41F0004130BD14F58004F7
:100468003CBF01F5801130BD01F0004545F0FE416B
:1004780041F470014FF0000030BD7FEA645C1ABFA0
:10048800194610467FEA655C1CBF0B46024650EAD7
:10049800013406BF52EA033591EA030F41F4002103
:1004A80030BD00BF90F0000F04BF0021704730B589
:1004B8004FF4806404F132044FF000054FF000015E
:1004C80050E700BF90F0000F04BF0021704730B51F
:1004D8004FF4806404F1320410F0004548BF4042F4
:1004E8004FF000013EE700BF42004FEAE2014FEA49
:1004F80031014FEA02701FBF12F07F4393F07F4F24
:1005080081F06051704732F07F4208BF704793F026
:100518007F4F04BF41F40021704730B54FF4607439
:1005280001F0004521F000411CE700BF50EA01023C
:1005380008BF704730B54FF000050AE050EA0102E5
:1005480008BF704730B511F0004502D5404261EB55
:1005580041014FF4806404F132045FEA915C3FF496
:10056800D8AE4FF003025FEADC0C18BF03325FEA33
:10057800DC0C18BF033202EBDC02C2F1200300FAE4
:1005880003FC20FA02F001FA03FE40EA0E0021FA09
:1005980002F11444BDE600BF70B54FF0FF0C4CF4F7
:1005A800E06C1CEA11541DBF1CEA135594EA0C0FA9
:1005B80095EA0C0F00F0DEF82C4481EA030621EAE4
:1005C8004C5123EA4C5350EA013518BF52EA03351F
:1005D80041F4801143F4801338D0A0FB02CE4FF0D1
:1005E8000005E1FB02E506F00042E0FB03E54FF001
:1005F8000006E1FB03569CF0000F18BF4EF0010EF9
:10060800A4F1FF04B6F5007F64F5407404D25FEAF4
:100618004E0E6D4146EB060642EAC62141EA5551A7
:100628004FEAC52040EA5E504FEACE2EB4F1FD0CE9
:1006380088BFBCF5E06F1ED8BEF1004F08BF5FEA67
:10064800500E50F1000041EB045170BD06F0004619
:1006580046EA010140EA020081EA0301B4EB5C04C6
:10066800C2BFD4EB0C0541EA045170BD41F48011BE
:100678004FF0000E013C00F3AB8014F1360FDEBFE3
:10068800002001F0004170BDC4F10004203C35DABF
:100698000C341BDC04F11404C4F1200500FA05F342
:1006A80020FA04F001FA05F240EA020001F00042E3
:1006B80021F0004110EBD37021FA04F642EB060159
:1006C8005EEA430E08BF20EAD37070BDC4F10C0483
:1006D800C4F1200500FA04F320FA05F001FA04F247
:1006E80040EA020001F0004110EBD37041F1000133
:1006F8005EEA430E08BF20EAD37070BDC4F120053E
:1007080000FA05F24EEA020E20FA04F301FA05F2A5
:1007180043EA020321FA04F001F0004121FA04F24D
:1007280020EA020000EBD3705EEA430E08BF20EA1D
:10073800D37070BD94F0000F0FD101F00046400057
:1007480041EB010111F4801F08BF013CF7D041EAD9
:10075800060195F0000F18BF704703F000465200DD
:1007680043EB030313F4801F08BF013DF7D043EAAE
:100778000603704794EA0C0F0CEA135518BF95EA64
:100788000C0F0CD050EA410618BF52EA4306D1D1EB
:1007980081EA030101F000414FF0000070BD50EA0A
:1007A800410606BF1046194652EA430619D094EA94
:1007B8000C0F02D150EA013613D195EA0C0F05D17E
:1007C80052EA03361CBF104619460AD181EA0301D2
:1007D80001F0004141F0FE4141F470014FF000008A
:1007E80070BD41F0FE4141F4780170BD70B54FF025
:1007F800FF0C4CF4E06C1CEA11541DBF1CEA1355A5
:1008080094EA0C0F95EA0C0F00F0A7F8A4EB050486
:1008180081EA030E52EA03354FEA013100F088807D
:100828004FEA03334FF0805545EA131343EA126346
:100838004FEA022245EA111545EA10654FEA0026FB
:100848000EF000419D4208BF964244F1FD0404F5B4
:10085800407402D25B084FEA3202B61A65EB030510
:100868005B084FEA32024FF480104FF4002CB6EBCD
:10087800020E75EB030E22BFB61A754640EA0C004D
:100888005B084FEA3202B6EB020E75EB030E22BF8D
:10089800B61A754640EA5C005B084FEA3202B6EBCE
:1008A800020E75EB030E22BFB61A754640EA9C008D
:1008B8005B084FEA3202B6EB020E75EB030E22BF5D
:1008C800B61A754640EADC0055EA060E18D04FEA1B
:1008D800051545EA16754FEA06164FEAC30343EABB
:1008E80052734FEAC2025FEA1C1CC0D111F4801F88
:1008F8000BD141EA00014FF000004FF0004CB6E781
:1009080011F4801F04BF01430020B4F1FD0C88BF1F
:10091800BCF5E06F3FF6AFAEB5EB030C04BFB6EB2A
:10092800020C5FEA500C50F1000041EB045170BD1D
:100938000EF0004E4EEA113114EB5C04C2BFD4EB4A
:100948000C0541EA045170BD41F480114FF0000ECE
:10095800013C90E645EA060E8DE60CEA135594EA4A
:100968000C0F08BF95EA0C0F3FF43BAF94EA0C0F4D
:100978000AD150EA01347FF434AF95EA0C0F7FF4C2
:1009880025AF104619462CE795EA0C0F06D152EA16
:1009980003353FF4FDAE1046194622E750EA4106FA
:1009A80018BF52EA43067FF4C5AE50EA41047FF40B
:1009B8000DAF52EA43057FF4EBAE12E74A0011D2BD
:1009C80012F5001211D20DD56FF47873B3EB6252A1
:1009D8000ED44FEAC12343F0004343EA505323FAAD
:1009E80002F070474FF00000704750EA013002D122
:1009F8004FF0FF3070474FF00000704780B500AFF0
:100A0800084B1B68074A43F010031360032000F0EB
:100A180029F9002000F008F807F04EFE00231846D8
:100A280080BD00BF0020024080B582B000AF786072
:100A3800124B1A68124B1B7819464FF47A73B3FBA2
:100A4800F1F3B2FBF3F3184600F033F90346002B39
:100A580001D001230EE07B680F2B0AD800227968A9
:100A68004FF0FF3000F009F9064A7B681360002355
:100A780000E0012318460837BD4680BD0800002065
:100A8800040000200000002080B400AF054B1B7854
:100A98001A46054B1B681344034A136000BFBD4642
:100AA80080BC704704000020A400002080B400AF80
:100AB800024B1B681846BD4680BC7047A400002046
:100AC80080B584B000AF7860FFF7F0FFB8607B684E
:100AD800FB60FB68B3F1FF3F05D0094B1B781A4652
:100AE800FB681344FB6000BFFFF7E0FF0246BB68EA
:100AF800D31AFA689A42F7D800BF1037BD4680BDAE
:100B08000400002080B485B000AF78607B6803F0F3
:100B18000703FB600C4BDB68BB60BA684FF6FF034A
:100B28001340BB60FB681A02BB68134343F0BF6302
:100B380043F40033BB60044ABB68D36000BF14377A
:100B4800BD4680BC704700BF00ED00E080B400AF38
:100B5800044BDB681B0A03F007031846BD4680BC3C
:100B6800704700BF00ED00E080B483B000AF0346DB
:100B78003960FB7197F90730002B0ADB3B68DAB262
:100B88000C4997F907301201D2B20B4483F80023BD
:100B98000AE03B68DAB20849FB7903F00F03043B2B
:100BA8001201D2B20B441A7600BF0C37BD4680BC86
:100BB800704700BF00E100E000ED00E080B489B0BC
:100BC80000AFF860B9607A60FB6803F00703FB6167
:100BD800FB69C3F10703042B28BF0423BB61FB692E
:100BE8000433062B02D9FB69033B00E000237B6139
:100BF8004FF0FF32BB6902FA03F3DA43BB681A40CD
:100C08007B699A404FF0FF317B6901FA03F3D943BE
:100C18007B680B40134318462437BD4680BC704799
:100C280080B582B000AF78607B68013BB3F1807F0C
:100C380001D301230FE00A4A7B68013B53600F216F
:100C48004FF0FF30FFF790FF054B00229A60044BEE
:100C580007221A60002318460837BD4680BD00BF2A
:100C680010E000E080B582B000AF78607868FFF7E8
:100C780049FF00BF0837BD4680BD80B586B000AFCC
:100C88000346B9607A60FB7300237B61FFF75EFF60
:100C980078617A68B9687869FFF790FF024697F932
:100CA8000F3011461846FFF75FFF00BF1837BD46E3
:100CB80080BD80B582B000AF78607868FFF7B0FF7C
:100CC800034618460837BD4680BD000080B48BB087
:100CD80000AF7860396000237B6200233B6233E118
:100CE80001227B6A02FA03F3FB613B681B68FA691D
:100CF8001340BB61BA69FB699A4240F022813B68A4
:100D08005B68122B34D0122B0DD8022B2BD0022B60
:100D180004D8002B31D0012B1CD048E0032B43D042
:100D2800112B1BD043E08F4A934226D08D4A934221
:100D380006D88D4A934220D08C4A93421DD036E083
:100D48008B4A934219D08B4A934216D08A4A9342CF
:100D580013D02CE03B68DB683B6228E03B68DB682B
:100D680004333B6223E03B68DB6808333B621EE0E8
:100D78003B68DB680C333B6219E03B689B68002BDF
:100D880002D104233B6212E03B689B68012B05D12A
:100D980008233B627B68FA691A6108E008233B6212
:100DA8007B68FA695A6102E000233B6200BFBB69B5
:100DB800FF2B01D87B6801E07B6804337B61BB694A
:100DC800FF2B02D87B6A9B0002E07B6A083B9B00F2
:100DD8003B617B691A680F213B6901FA03F3DB4326
:100DE8001A40396A3B6901FA03F31A437B691A60AE
:100DF8003B685B6803F08053002B00F0A2805F4BD8
:100E08009B695E4A43F0010393615C4B9B6903F065
:100E18000103BB60BB685A4A7B6A9B08023352F8DD
:100E28002330FB607B6A03F003039B000F2202FA66
:100E380003F3DB43FA681340FB607B68514A934233
:100E48001FD07B68504A934219D07B684F4A93421F
:100E580013D07B684E4A93420DD07B684D4A93422B
:100E680007D07B684C4A934201D105230AE0062348
:100E780008E0042306E0032304E0022302E0012340
:100E880000E000237A6A02F0030292009340FA68B5
:100E98001343FB603A497B6A9B080233FA6841F8BE
:100EA80023203B685B6803F48033002B06D03B4B60
:100EB8001A683A49BB6913430B6006E0374B1A6856
:100EC800BB69DB43354913400B603B685B6803F43F
:100ED8000033002B06D0314B5A683049BB691343A5
:100EE8004B6006E02D4B5A68BB69DB432B49134026
:100EF8004B603B685B6803F48013002B06D0274BDC
:100F08009A682649BB6913438B6006E0234B9A68AD
:100F1800BB69DB43214913408B603B685B6803F482
:100F28000013002B06D01D4BDA681C49BB6913431C
:100F3800CB6006E0194BDA68BB69DB4317491340FD
:100F4800CB607B6A01337B623B681A687B6A22FA52
:100F580003F3002B7FF4C4AE00BF2C37BD4680BC22
:100F6800704700BF0000211000001110000012108F
:100F78000000311000003210000022100010024062
:100F88000000014000080140000C01400010014031
:100F98000014014000180140001C014000040140F9
:100FA80080B485B000AF78600B467B807B689A6818
:100FB8007B881340002B02D00123FB7301E0002340
:100FC800FB73FB7B18461437BD4680BC704780B462
:100FD80083B000AF78600B467B8013467B707B78CC
:100FE800002B03D07A887B681A6103E07B881A0497
:100FF8007B681A6100BF0C37BD4680BC7047000093
:1010080080B586B000AF78607B68002B01D10123E2
:101018006CE27B681B6803F00103002B00F08780FB
:10102800924B5B6803F00C03042B0CD08F4B5B686E
:1010380003F00C03082B12D18C4B5B6803F480334C
:10104800B3F5803F0BD1894B1B6803F40033002BA9
:101058006CD07B685B68002B68D1012346E27B6813
:101068005B68B3F5803F06D1804B1B687F4A43F429
:10107800803313602EE07B685B68002B0CD17B4BC0
:101088001B687A4A23F480331360784B1B68774ACD
:1010980023F4802313601DE07B685B68B3F5A02F01
:1010A8000CD1724B1B68714A43F4802313606F4B59
:1010B8001B686E4A43F4803313600BE06B4B1B686C
:1010C8006A4A23F480331360684B1B68674A23F429
:1010D800802313607B685B68002B13D0FFF7E6FC66
:1010E800386108E0FFF7E2FC02463B69D31A642B3B
:1010F80001D90323FAE15D4B1B6803F40033002B8D
:10110800F0D014E0FFF7D2FC386108E0FFF7CEFC1E
:1011180002463B69D31A642B01D90323E6E1534BFA
:101128001B6803F40033002BF0D100E000BF7B689C
:101138001B6803F00203002B63D04C4B5B6803F081
:101148000C03002B0BD0494B5B6803F00C03082BF6
:101158001CD1464B5B6803F48033002B16D1434BFC
:101168001B6803F00203002B05D07B681B69012B69
:1011780001D00123BAE13D4B1B6823F0F8027B68DC
:101188005B69DB00394913430B603AE07B681B69F4
:10119800002B20D0364B01221A60FFF787FC3861FC
:1011A80008E0FFF783FC02463B69D31A022B01D9FA
:1011B80003239BE12D4B1B6803F00203002BF0D0A7
:1011C8002A4B1B6823F0F8027B685B69DB00274920
:1011D80013430B6015E0264B00221A60FFF766FCEC
:1011E800386108E0FFF762FC02463B69D31A022B1C
:1011F80001D903237AE11D4B1B6803F00203002B7E
:10120800F0D17B681B6803F00803002B3AD07B6899
:101218009B69002B19D0174B01221A60FFF746FC77
:10122800386108E0FFF742FC02463B69D31A022BFB
:1012380001D903235AE10D4B5B6A03F00203002B2B
:10124800F0D0012000F0A8FA1CE00A4B00221A6036
:10125800FFF72CFC38610FE0FFF728FC02463B69DA
:10126800D31A022B08D9032340E100BF0010024023
:1012780000004242800442429E4B5B6A03F0020334
:10128800002BE9D17B681B6803F00403002B00F0F6
:10129800A6800023FB75974BDB6903F08053002B76
:1012A8000DD1944BDB69934A43F08053D361914B42
:1012B800DB6903F08053BB60BB680123FB758E4B71
:1012C8001B6803F48073002B18D18B4B1B688A4A68
:1012D80043F480731360FFF7E9FB386108E0FFF718
:1012E800E5FB02463B69D31A642B01D90323FDE0D1
:1012F800814B1B6803F48073002BF0D07B68DB689C
:10130800012B06D17B4B1B6A7A4A43F00103136217
:101318002DE07B68DB68002B0CD1764B1B6A754A85
:1013280023F001031362734B1B6A724A23F0040310
:1013380013621CE07B68DB68052B0CD16D4B1B6AC4
:101348006C4A43F0040313626A4B1B6A694A43F010
:10135800010313620BE0674B1B6A664A23F0010323
:101368001362644B1B6A634A23F0040313627B68AD
:10137800DB68002B15D0FFF799FB38610AE0FFF70F
:1013880095FB02463B69D31A41F28832934201D950
:101398000323ABE0574B1B6A03F00203002BEED08C
:1013A80014E0FFF783FB38610AE0FFF77FFB024692
:1013B8003B69D31A41F28832934201D9032395E05D
:1013C8004C4B1B6A03F00203002BEED1FB7D012B73
:1013D80005D1484BDB69474A23F08053D3617B68CA
:1013E800DB69002B00F08180424B5B6803F00C0343
:1013F800082B61D07B68DB69022B46D13F4B00226A
:101408001A60FFF753FB386108E0FFF74FFB02460D
:101418003B69D31A022B01D9032367E0354B1B68BC
:1014280003F00073002BF0D17B681B6AB3F5803F93
:1014380008D1304B5B6823F400327B689B682D49E8
:1014480013434B602B4B5B6823F474127B68196A57
:101458007B685B6A0B43274913434B60274B012288
:101468001A60FFF723FB386108E0FFF71FFB02460D
:101478003B69D31A022B01D9032337E01D4B1B68A4
:1014880003F00073002BF0D02FE01C4B00221A60F1
:10149800FFF70CFB386108E0FFF708FB02463B69E1
:1014A800D31A022B01D9032320E0124B1B6803F047
:1014B8000073002BF0D118E07B68DB69012B01D1A8
:1014C800012313E00B4B5B68FB60FB6803F480327D
:1014D8007B681B6A9A4206D1FB6803F470127B682A
:1014E8005B6A9A4201D0012300E0002318461837AE
:1014F800BD4680BD001002400070004060004242BE
:1015080080B584B000AF786039607B68002B01D16A
:101518000123D0E06A4B1B6803F007033A689A423C
:1015280010D9674B1B6823F0070265493B681343D2
:101538000B60634B1B6803F007033A689A4201D0BB
:101548000123B8E07B681B6803F00203002B20D05E
:101558007B681B6803F00403002B05D0594B5B68BC
:10156800584A43F4E06353607B681B6803F0080340
:10157800002B05D0534B5B68524A43F460535360C9
:10158800504B5B6823F0F0027B689B684D4913431E
:101598004B607B681B6803F00103002B40D07B681D
:1015A8005B68012B07D1474B1B6803F40033002B02
:1015B80015D101237FE07B685B68022B07D1414B83
:1015C8001B6803F00073002B09D1012373E03D4B26
:1015D8001B6803F00203002B01D101236BE0394B98
:1015E8005B6823F003027B685B68364913434B60F2
:1015F800FFF75CFAF8600AE0FFF758FA0246FB6862
:10160800D31A41F28832934201D9032353E02D4B78
:101618005B6803F00C027B685B689B009A42EBD125
:10162800274B1B6803F007033A689A4210D2244BF1
:101638001B6823F0070222493B6813430B60204BC9
:101648001B6803F007033A689A4201D0012332E08D
:101658007B681B6803F00403002B08D0194B5B68F8
:1016680023F4E0627B68DB68164913434B607B68B0
:101678001B6803F00803002B09D0124B5B6823F4A6
:1016880060527B681B69DB000E4913434B6000F016
:1016980021F801460B4B5B681B0903F00F030A4A4C
:1016A800D35C21FA03F3094A1360094B1B681846F7
:1016B800FFF7BAF9002318461037BD4680BD00BFB2
:1016C80000200240001002406818030808000020AB
:1016D8000000002090B48AB000AF2A4B3C1D0FCB0D
:1016E80084E80F00284B1B883B800023FB61002304
:1016F800BB6100237B6200237B6100233B62234B99
:101708005B68FB61FB6903F00C03042B02D0082B18
:1017180003D02DE01E4B3B622DE0FB699B0C03F0D0
:101728000F0307F12802134413F8243C7B61FB697B
:1017380003F48033002B13D0144B5B685B0C03F06D
:10174800010307F12802134413F8283CBB617B69A5
:101758000F4A02FB03F2BB69B2FBF3F37B6204E0BE
:101768007B690C4A02FB03F37B627B6A3B6202E003
:10177800074B3B6200BF3B6A18462837BD4690BC02
:10178800704700BF64A7000874A700080010024053
:1017980000127A0000093D0080B485B000AF78607F
:1017A8000A4B1B680A4AA2FB03235B0A7A6802FBFE
:1017B80003F3FB6000BFFB685A1EFA60002BF9D1E7
:1017C80000BF1437BD4680BC704700BF080000202A
:1017D800D34D621080B584B000AF2C4B9B781A466D
:1017E80013465B0113449B00294A1344BB60274BF3
:1017F800DB78FB71BB6893F88230BB710023FB7305
:1018080039E097F9072097F90F30B96812010A44AF
:1018180013441A781D4B93F90030DBB21344DBB242
:101828007B7197F9072097F90F30B96812010A44BC
:10183800134440331A78154B93F90130DBB2134443
:10184800DBB23B7197F90530DBB2013BDBB27B7150
:1018580097F9042097F905301146184600F096F9D3
:101868000346012B01D100230CE097F90F30DBB2BE
:101878000133DBB2FB7397F90F2097F906309A42D0
:10188800BFDB012318461037BD4680BD4404002045
:10189800A800002080B584B000AF2C4B9B781A4676
:1018A80013465B0113449B00294A1344BB60274B32
:1018B800DB78FB71BB6893F88230BB710023FB7344
:1018C80039E097F9072097F90F30B96812010A44EF
:1018D80013441A781D4B93F90030DBB21344DBB282
:1018E8007B7197F9072097F90F30B96812010A44FC
:1018F800134440331A78154B93F90130DBB2134483
:10190800DBB23B7197F90530DBB20133DBB27B7197
:1019180097F9042097F905301146184600F036F972
:101928000346012B01D100230CE097F90F30DBB2FD
:101938000133DBB2FB7397F90F2097F906309A420F
:10194800BFDB012318461037BD4680BD4404002084
:10195800A800002080B584B000AF2C4B9B781A46B5
:1019680013465B0113449B00294A1344BB60274B71
:10197800DB78FB71BB6893F88230BB710023FB7383
:1019880039E097F9072097F90F30B96812010A442E
:1019980013441A781D4B93F90030DBB21344DBB2C1
:1019A8007B7197F9072097F90F30B96812010A443B
:1019B800134440331A78154B93F90130DBB21344C2
:1019C800DBB23B7197F90430DBB2013BDBB23B7110
:1019D80097F9042097F905301146184600F0D6F813
:1019E8000346012B01D100230CE097F90F30DBB23D
:1019F8000133DBB2FB7397F90F2097F906309A424F
:101A0800BFDB012318461037BD4680BD44040020C3
:101A1800A800002080B584B000AF2D4B9B781A46F3
:101A280013465B0113449B002A4A1344BB60284BAE
:101A3800DB7801335A4203F0030302F0030258BF74
:101A48005342FB71BB6893F88230BB710023FB7370
:101A580033E097F9072097F90F30B96812010A4463
:101A680013441A781A4B93F90030DBB21344DBB2F3
:101A78007B7197F9072097F90F30B96812010A446A
:101A8800134440331A78124B93F90130DBB21344F4
:101A9800DBB23B7197F9042097F9053011461846D7
:101AA80000F074F80346012B01D100230CE097F9EC
:101AB8000F30DBB20133DBB2FB7397F90F2097F9D4
:101AC80006309A42C5DB012318461037BD4680BD53
:101AD80044040020A800002080B584B000AF294B42
:101AE8009B781A4613465B0113449B00264A13440D
:101AF800BB60244BDB78FB71BB6893F88230BB7109
:101B08000023FB7333E097F9072097F90F30B96882
:101B180012010A4413441A781A4B93F90030DBB2C5
:101B28001344DBB27B7197F9072097F90F30B96836
:101B380012010A44134440331A78124B93F90130C6
:101B4800DBB21344DBB23B7197F9042097F90530F7
:101B58001146184600F01AF80346012B01D101235B
:101B68000CE097F90F30DBB20133DBB2FB7397F966
:101B78000F2097F906309A42C5DB00231846103724
:101B8800BD4680BD44040020A800002080B483B076
:101B980000AF03460A46FB711346BB7197F907303D
:101BA800092B19DC97F90730002B15DB97F906305C
:101BB800132B11DC97F90630002B0DDB97F9062063
:101BC80097F90710084813469B0013445B000B4421
:101BD80010F82330002B01D1012300E00023184620
:101BE8000C37BD4680BC70476C04002090B484B0AC
:101BF80000AF284B9B781A4613465B0113449B00A1
:101C0800254A1344BB600023FB733BE0214BDB7880
:101C18001A46FB7BB96812010A4413441A781D4B13
:101C280093F90030DBB21344FB711A4BDB781A4688
:101C3800FB7BB96812010A44134440331A78154BE8
:101C480093F90130DBB21344BB71BA79F9791348BF
:101C580013469B0013445B000B44002200F823202A
:101C6800BA79F979BB68B3F880400C4813469B00F1
:101C780013445B000B449B00034422465A80FB7BC1
:101C88000133FB73FB7B032BC0D900BF1037BD4664
:101C980090BC704744040020A80000206C04002079
:101CA80098B500AF1C4A1D4B1B6813601B4A1C4BA0
:101CB8001B68136007F070FC03461A46194B1B6833
:101CC80003FB02F3184607F043FC07F065FC0246E5
:101CD800154B83FB021313449910D317C91A0B46EB
:101CE800DB005B1AD11ACCB207F056FC03465A4205
:101CF80003F0030302F0030258BF5342DAB2084B61
:101D080003211970064B10215970054B2146997013
:101D1800034BDA7000BF98BD440400204C04002037
:101D280048040020A40000209324499280B582B082
:101D380000AF07F031FC03461A46054B1B6803FB4E
:101D480002F3184607F004FC0023FB7107E000BF0C
:101D5800A4000020FFF7A4FFFB790133FB71FB7996
:101D6800022BF7D9CD4B03F5C67384220021184600
:101D780007F0CEFBC94B012283F88D21C74B012206
:101D880083F88F21C54B012283F89D21C34B012283
:101D980083F89F21C14B012283F8AD21BF4B01225B
:101DA80083F8AF21BD4B012283F8BD21BB4B012233
:101DB80083F8BF21B94B032283F8CC21B74B032208
:101DC80083F8CD21B54B022283F8CE21B34B0222F2
:101DD80083F8CF21B14B032283F8DC21AF4B0322D8
:101DE80083F8DD21AD4B022283F8DE21AB4B0222C2
:101DF80083F8DF21A94B032283F8EC21A74B0322A8
:101E080083F8ED21A54B022283F8EE21A34B022291
:101E180083F8EF21A14B032283F8FC219F4B032277
:101E280083F8FD219D4B022283F8FE219B4B022261
:101E380083F8FF21994B1F22A3F80C22974B042209
:101E480083F80E22954B03F504738422002118466B
:101E580007F05EFB914B012283F811228F4B012280
:101E680083F812228D4B022283F813228B4B012216
:101E780083F82022894B012283F82122874B0222F2
:101E880083F82222854B022283F82322834B0122E6
:101E980083F83122814B012283F832227F4B0222C0
:101EA80083F833227D4B012283F840227B4B0122A9
:101EB80083F84122794B022283F84222774B02228F
:101EC80083F84322754B022283F85022734B022277
:101ED80083F85122714B032283F852226F4B03225D
:101EE80083F853226D4B032283F860226B4B022246
:101EF80083F86122694B022283F86222674B012230
:101F080083F86322654B022283F87022634B022216
:101F180083F87122614B032283F872225F4B0322FC
:101F280083F873225D4B032283F880225B4B0222E5
:101F380083F88122594B022283F88222574B0122CF
:101F480083F88322554B4FF4FC62A3F89022534B3D
:101F5800042283F89222514B03F525738422002131
:101F6800184607F0D5FA4D4B012283F895224B4BC2
:101F7800012283F89622494B022283F89722474B85
:101F8800012283F8A422454B022283F8A522434B61
:101F9800022283F8A622414B022283F8A7223F4B54
:101FA800012283F8B5223D4B012283F8B6223B4B30
:101FB800022283F8B722394B012283F8C722374B14
:101FC800032283F8D422354B032283F8D522334BDE
:101FD800022283F8D622314B032283F8D7222F4BD3
:101FE800022283F8E4222D4B032283F8E5222B4BAF
:101FF800022283F8E622294B012283F8E722274BA5
:10200800022283F8F422254B032283F8F522234B7E
:10201800022283F8F622214B022283F8F7221F4B73
:10202800012283F804231D4B022283F805231B4B4E
:10203800032283F80623194B022283F80723174B40
:102048004FF6E072A3F81423144B042283F81623E6
:10205800124B03F5467384220021184607F058FAFC
:102068000E4B012283F819230C4B012283F81A2303
:102078000A4B022283F81B23084B012283F82A23E8
:10208800064B012283F82B23044B012283F83923C2
:10209800024B012283F83A2302E000BFA800002087
:1020A800CB4B022283F83B23C94B012283F84A23F6
:1020B800C74B012283F84B23C54B032283F85823CF
:1020C800C34B032283F85923C14B022283F85A23B6
:1020D800BF4B022283F85B23BD4B012283F86823A0
:1020E800BB4B022283F86923B94B022283F86A2387
:1020F800B74B032283F86B23B54B032283F878236D
:10210800B34B032283F87923B14B022283F87A2355
:10211800AF4B022283F87B23AD4B012283F888233F
:10212800AB4B022283F88923A94B022283F88A2326
:10213800A74B032283F88B23A54B4BF64042A3F809
:102148009823A34B042283F89A23A14B184684238F
:102158001A46002107F0DCF99D4B01225A709C4B6E
:1021680002229A709A4B0322DA70994B02221A744F
:10217800974B02225A74964B02229A74944B02226D
:10218800DA74934B012283F82120914B022283F8C1
:1021980022208F4B032283F823208D4B022283F8C1
:1021A80030208B4B022283F83120894B022283F89E
:1021B8003220874B022283F83320854B032283F891
:1021C8004020834B032283F84120814B032283F86C
:1021D80042207F4B032283F843207D4B012283F862
:1021E80051207B4B022283F85220794B032283F83B
:1021F8005320774B032283F86020754B032283F822
:102208006120734B032283F86220714B032283F809
:1022180063206F4B012283F871206D4B022283F8F3
:1022280072206B4B032283F87320694B4FF478427A
:10223800A3F88020664B042283F88220644B843301
:1022480084220021184607F063F9614B012283F8C4
:1022580085205F4B022283F886205D4B022283F89B
:1022680087205B4B012283F89520594B012283F884
:102278009620574B012283F89720554B012283F86B
:10228800A620534B022283F8A720514B012283F842
:10229800B4204F4B012283F8B5204D4B012283F81F
:1022A800B6204B4B022283F8B720494B032283F810
:1022B800C420474B032283F8C520454B032283F8EB
:1022C800C620434B022283F8C720414B012283F8E2
:1022D800D4203F4B012283F8D5203D4B022283F8BE
:1022E800D6203B4B032283F8D720394B032283F8AF
:1022F800E420374B022283F8E520354B022283F88D
:10230800E620334B022283F8E720314B012283F881
:10231800F4202F4B022283F8F5202D4B032283F85B
:10232800F6202B4B032283F8F720294B4FF6074260
:10233800A3F80421264B042283F80621244B03F535
:10234800847384220021184607F0E2F8204B01220A
:1023580083F80A211E4B022283F80B211C4B012211
:1023680083F818211A4B022283F81921184B0222EC
:1023780083F81A21164B022283F81B21144B0122E1
:1023880083F82921124B022283F82A21104B0222BA
:1023980083F82B210E4B012283F838210C4B0122A4
:1023A80083F839210A4B012283F83A21084B02228B
:1023B80083F83B21064B022283F84821044B032271
:1023C80083F84921024B032283F84A2102E000BF27
:1023D800A8000020204B032283F84B211E4B032228
:1023E80083F858211C4B032283F859211A4B0222E7
:1023F80083F85A21184B012283F85B21164B0222DD
:1024080083F86821144B022283F86921124B0222B7
:1024180083F86A21104B032283F86B210E4B0322A9
:1024280083F878210C4B022283F879210A4B012288
:1024380083F87A21084B012283F87B21064B48F266
:102448003042A3F88821044B042283F88A2100BF74
:102458000837BD4680BD00BFA800002080B500AF8A
:10246800084B1A68084B1B68D21A084B1B689A421B
:1024780005D3044B1B68044A136000F009F800BF39
:1024880080BD00BFA400002060040020500400208C
:1024980090B583B000AF0023FB711BE00323BB7131
:1024A80012E0F879BB79591EFA79BB79234C800080
:1024B800204401440878214992000A441344024602
:1024C8001A70BB79013BBB71BB79002BE9D1FB7951
:1024D8000133FB71FB79022BE0D94FF40041184816
:1024E800FEF75EFD0346012B03D1144B01221A703F
:1024F80002E0124B00221A7020211248FEF750FD0C
:102508000346012B03D10D4B01221A7102E00B4B3C
:1025180000221A7101210A48FEF742FD0346012BE9
:1025280003D1064B01221A7202E0044B00221A72F0
:1025380000F00AF800BF0C37BD4690BD54040020D7
:10254800000801400010014080B500AF344B1B78F3
:10255800002B20D1324B5B78012B1CD1304B9B7860
:10256800012B18D12E4BDB78012B14D12C4B1B7A65
:10257800002B0ED12A4B5B7A002B0AD1284B9B7A71
:10258800002B06D1264BDB7A002B02D100F066F82F
:1025980001E000F0B5F8224B1B79002B20D1204B2D
:1025A8005B79012B1CD11E4B9B79012B18D11C4B3D
:1025B800DB79012B14D11A4B1B7A002B0ED1184B47
:1025C8005B7A002B0AD1164B9B7A002B06D1144B51
:1025D800DB7A002B02D100F05BF801E000F0BAF8DA
:1025E8000F4B1B7A002B12D10D4B5B7A002B0ED1AF
:1025F8000B4B9B7A002B0AD1094BDB7A002B06D1B7
:1026080001224FF480710748FEF7E1FC05E0002243
:102618004FF480710348FEF7DAFC00BF80BD00BFAD
:10262800540400200008014080B500AF084B1A6828
:10263800084B1B68D21A084B1B689A4205D3044BF7
:102648001B68044A136000F0A3F800BF80BD00BFF8
:10265800A40000208C0000206804002080B500AF92
:10266800FFF7B8F80346002B0ED0012006F0F4FA65
:10267800064B93F90030DBB2013BDBB25AB2034B95
:102688001A70002006F0E8FA00BF80BD440400205C
:1026980080B500AFFFF7FEF80346002B0ED00120EF
:1026A80006F0DAFA064B93F90030DBB20133DBB2FD
:1026B8005AB2034B1A70002006F0CEFA00BF80BD54
:1026C8004404002080B400AF034B4FF4FA721A6040
:1026D80000BFBD4680BC70476804002080B400AFCE
:1026E800064B1B68C82B04D9044B1B68143B034AD0
:1026F800136000BFBD4680BC704700BF680400205F
:1027080080B500AFFFF786F90346002B12D00120F1
:1027180006F0A2FA084BDB7801335A4203F00303B0
:1027280002F0030258BF5342DAB2034BDA700020BA
:1027380006F092FA00BF80BD4404002080B500AFC7
:10274800FFF7CAF90346002B01D0012300E000235C
:10275800184680BD80B500AF11E0012006F07CFA74
:102768000A4B93F90130DBB2013BDBB25AB2074B9B
:102778005A70002006F070FA3220FEF7A1F9FFF730
:10278800E9F80346002BE8D100BF80BD44040020CF
:1027980080B582B000AF012204213448FEF717FC4F
:1027A800FFF7D8F80346002B0FD0012006F054FAA3
:1027B8002F4B93F90130DBB2013BDBB25AB22C4B01
:1027C8005A70002006F048FA4BE0FFF70FFA00F0C5
:1027D80075F80346BB71BB79002B26D0BB799BB239
:1027E800BA7992B202FB03F39AB2224B1B881344C4
:1027F8009AB2204B1A801F4B1B88184606F0FEFA27
:10280800002204211948FEF7E2FB0023FB7104E0D3
:10281800FFF764FFFB790133FB71FA79BB799A42C0
:10282800F6D306F02BFB06F0D3F9012006F062FA86
:10283800012006F0A1FAFFF733FAFFF77FFF0346FE
:10284800002B09D1002006F007FA002006F052FA02
:10285800002006F091FA04E0064B1B88184606F0A3
:1028680045FD00BF0837BD4680BD00BF00140140CC
:10287800440400206404002080B500AF00F0A4F8F0
:1028880000F0CAF8FFF752FA0B4B00221A80FFF744
:1028980019FF06F037F8084B1B88184606F0AEFA01
:1028A800002006F0D9F9002006F024FA002006F0EE
:1028B80063FA00BF80BD00BF6404002080B582B009
:1028C80000AF00237B711423BB712DE00023FB7143
:1028D8001EE097F9062097F90710184813469B0041
:1028E80013445B000B4410F82330002B15D197F9E3
:1028F8000730092B06D1BB79184600F021F87B79FF
:1029080001337B7197F90730DBB20133DBB2FB711E
:1029180097F90730092BDCDD00E000BF97F9063096
:10292800DBB2013BDBB2BB7197F90630002BCDDA85
:102938007B7918460837BD4680BD00BF6C0400206F
:10294800B0B485B000AF0346FB71FB79BB7322E0DE
:102958000023FB7319E0BB7B5A1CF87BB97BFC7B1B
:10296800184D0B469B000B445B001919154C134678
:102978009B0013445B001A188B002B4492002244DE
:1029880012681A60FB7B0133FB73FB7B092BE2D9CE
:10299800BB7B0133BB73BB7B122BD9D90023FB73E1
:1029A80008E0FB7B074ABE33012102F82310FB7BBA
:1029B8000133FB73FB7B092BF3D900BF1437BD46EA
:1029C800B0BC70476C04002080B483B000AF002313
:1029D800BB7116E00023FB710DE0BA79F9790D4857
:1029E80013469B0013445B000B44012200F823208C
:1029F800FB790133FB71FB79092BEED9BB790133E4
:102A0800BB71BB79132BE5D900BF0C37BD4680BC21
:102A1800704700BF6C04002080B483B000AF00236F
:102A2800BB7113E00023FB710AE0BA79FB790B490B
:102A380092001344012201F82320FB790133FB7132
:102A4800FB79032BF1D9BB790133BB71BB79032B1C
:102A5800E8D900BF0C37BD4680BC70478C07002002
:102A680080B483B000AF0346FB800D4B4FF48072F7
:102A78005A610B4B4FF400725A610A4AFB88D360C3
:102A8800074B80225A61064B80221A61044B4FF48F
:102A980000721A6100BF0C37BD4680BC704700BF8A
:102AA80000100140000C014080B483B000AF034621
:102AB800FB800D4B4FF480721A610B4B4FF4007280
:102AC8005A610A4AFB88D360074B80225A61064B39
:102AD80080221A61044B4FF400721A6100BF0C3750
:102AE800BD4680BC704700BF00100140000C01408B
:102AF80080B582B000AF1D4B4FF088321A601B4B77
:102B08004FF088325A60194B0022DA60184B4FF4A4
:102B180080721A61164B4FF400725A61144B4022AE
:102B28005A61144B9B8848F68912934202D10120BE
:102B3800FDF7C6FF0D4B9B68FB800D4B40221A61C9
:102B48000B4B4FF400721A61084B4FF033321A6086
:102B5800064B4FF033325A60044B4FF6FF72DA607F
:102B6800FB8818460837BD4680BD00BF000C0140F1
:102B780000100140CC07002080B582B000AF0346AA
:102B88000A46FB801346BB80FB881846FFF768FFA0
:102B98000C4B4FF480721A610A4B4FF400725A6161
:102BA800094ABB88D360074B80225A61054B8022B3
:102BB8001A61044B4FF400721A6100BF0837BD4612
:102BC80080BD00BF00100140000C014080B582B0FC
:102BD80000AF0346FB80FB881846FFF741FFFFF76D
:102BE80087FF034618460837BD4680BD80B500AF4D
:102BF800034B1B891846FFF733FF00BF80BD00BF9A
:102C0800CC07002080B582B000AF03460A46FB809F
:102C18001346BB80734B9B8849F24132934205D0DF
:102C2800704B9B8845F21032934264D16D4B5B899F
:102C38001846FFF715FF6C4B4FF480721A616A4B08
:102C48004FF400725A61FB881B0A9AB2674BDA602C
:102C5800654B80225A61644B80221A61624B4FF4A3
:102C680000721A61604B4FF480721A615E4B4FF428
:102C780000725A61FB885D4ADBB2D3605A4B8022EE
:102C88005A61594B80221A61574B4FF400721A61EE
:102C9800544B9B891846FFF7E3FE534B4FF4807261
:102CA8001A61514B4FF400725A61BB881B0A9AB2E1
:102CB8004E4BDA604C4B80225A614B4B80221A6192
:102CC800494B4FF400721A61474B4FF480721A61F6
:102CD800454B4FF400725A61BB88444ADBB2D3605B
:102CE800414B80225A61404B80221A613E4B4FF47F
:102CF80000721A6148E23B4B9B8846F604029342F5
:102D080076D1384B9B79012B06D1364B1A88FB8834
:102D1800D31A9BB2013BFB80324B5B891846FFF705
:102D28009FFE314B4FF480721A612F4B4FF40072A3
:102D38005A61FB881B0A9AB22C4BDA602A4B802214
:102D48005A61294B80221A61274B4FF400721A618D
:102D5800254B4FF480721A61234B4FF400725A616D
:102D6800FB88224ADBB2D3601F4B80225A611E4B7C
:102D780080221A611C4B4FF400721A61194B9B890F
:102D88001846FFF76DFE184B4FF480721A61164B08
:102D98004FF400725A61BB881B0A9AB2134BDA606F
:102DA800114B80225A61104B80221A610E4B4FF44E
:102DB80000721A610C4B4FF480721A610A4B4FF47F
:102DC80000725A61BB88094ADBB2D360064B802285
:102DD8005A61054B80221A61034B4FF400721A6145
:102DE800D2E100BFCC07002000100140000C0140D8
:102DF800994B9B8841F66312934240F03381964B7E
:102E08009B79002B63D1944B1A88FB88D31A9BB209
:102E1800013BFB80904B5B891846FFF721FE8F4BE7
:102E28004FF480721A618D4B4FF400725A618C4BCB
:102E38000022DA60894B80225A61884B80221A610D
:102E4800864B4FF400721A61844B4FF480721A61FA
:102E5800824B4FF400725A61814B0022DA607F4B3B
:102E680080225A617D4B80221A617C4B4FF400729C
:102E78001A617A4B4FF480721A61784B4FF40072E2
:102E88005A61FB881B0A9AB2754BDA60734B802231
:102E98005A61724B80221A61704B4FF400721A61AA
:102EA8006E4B4FF480721A616C4B4FF400725A618A
:102EB800FB886B4ADBB2D360684B80225A61674B50
:102EC80080221A61654B4FF400721A6161E0624B0F
:102ED8005B891846FFF7C4FD604B4FF480721A6196
:102EE8005E4B4FF400725A61FB881B0A9AB25C4B26
:102EF800DA605A4B80225A61584B80221A61574B2C
:102F08004FF400721A61554B4FF480721A61534B9B
:102F18004FF400725A61FB88514ADBB2D3604F4BC1
:102F280080225A614D4B80221A614C4B4FF400723B
:102F38001A614A4B4FF480721A61484B4FF4007281
:102F48005A61454B1B88013B1A12454BDA60434BCB
:102F580080225A61414B80221A61404B4FF4007223
:102F68001A613E4B4FF480721A613C4B4FF4007269
:102F78005A61394B1B88013B394ADBB2D360374B66
:102F880080225A61354B80221A61344B4FF400720B
:102F98001A61314B9B891846FFF762FD2F4B4FF49E
:102FA80080721A612D4B4FF400725A61BB881B0A5C
:102FB8009AB22B4BDA60294B80225A61274B802228
:102FC8001A61264B4FF400721A61244B4FF4807239
:102FD8001A61224B4FF400725A61BB88204ADBB257
:102FE800D3601E4B80225A611C4B80221A611B4BF6
:102FF8004FF400721A61194B4FF480721A61174B23
:103008004FF400725A61144B5B88013B1A12144B3F
:10301800DA60124B80225A61104B80221A610F4BE2
:103028004FF400721A610D4B4FF480721A610B4B0A
:103038004FF400725A61084B5B88013B084ADBB2C7
:10304800D360064B80225A61044B80221A61034BDD
:103058004FF400721A6197E0CC070020001001407D
:10306800000C01404A4B9B8845F21052934272D1A2
:10307800474B5B891846FFF7F3FC464B4FF48072C9
:103088001A61444B4FF400725A61FB881B0A9AB2CA
:10309800414BDA603F4B80225A613E4B80221A61D5
:1030A8003C4B4FF400721A61394B5B8901339BB278
:1030B8001846FFF7D5FC374B4FF480721A61354B31
:1030C8004FF400725A61FB88334ADBB2D360314B4C
:1030D80080225A612F4B80221A612E4B4FF40072C6
:1030E8001A612B4B9B891846FFF7BAFC294B4FF402
:1030F80080721A61274B4FF400725A61BB881B0A11
:103108009AB2254BDA60234B80225A61214B8022E8
:103118001A61204B4FF400721A611D4B9B890133D1
:103128009BB21846FFF79CFC1A4B4FF480721A6149
:10313800184B4FF400725A61BB88174ADBB2D36050
:10314800144B80225A61134B80221A61114B4FF4A1
:1031580000721A6118E00E4B9B79012B06D10C4BBB
:103168001A88FB88D31A9BB2013BFB80084B5B890A
:10317800FA8811461846FFF7FFFC054B9B89BA8869
:1031880011461846FFF7F8FC00BF0837BD4680BD5A
:10319800CC07002000100140000C014080B584B02D
:1031A80000AF0346FB710023FB810023BB81784BF2
:1031B8009B79012B0BD1764B9B8846F604029342F0
:1031C80005D0734B9B8841F66312934209D1704B2B
:1031D8009B79002B34D16E4B9B8841F66312934246
:1031E8002ED1FB79072B2BD801A252F823F000BF70
:1031F800193200081F320008253200082B32000857
:1032080031320008373200083D32000843320008E6
:103218000623FB7114E00723FB7111E00423FB7103
:103228000EE00523FB710BE00123FB7108E000238E
:10323800FB7105E00323FB7102E00223FB7100BF71
:10324800534B9B8849F24132934218D0504B9B888C
:1032580046F60402934212D04D4B9B8845F2103239
:1032680093420CD04A4B9B8845F21052934206D0A9
:10327800474B9B8841F66312934240F05082FB799A
:10328800072B36D801A252F823F000BFFB32000802
:10329800B5320008BF320008C9320008D33200082E
:1032A800DD320008E7320008F1320008FB8943F0FC
:1032B8008003FB811DE0FB8943F04003FB8118E09C
:1032C800FB8943F0C003FB8113E0FB8943F0200333
:1032D800FB810EE0FB8943F06003FB8109E0FB8979
:1032E80043F0A003FB8104E0FB8943F0E003FB818A
:1032F80000BF274B9B8845F21052934203D14FF4ED
:103308005853BB8101E03623BB81214B9B8845F292
:10331800103293420FD01E4B9B8845F210529342B5
:1033280009D01B4B9B8841F66312934203D0FB895B
:1033380043F00803FB81164B9B8846F60402934230
:1033480003D1FB8943F00203FB81FA89BB8911464B
:103358001846FFF711FC0E4B9B8841F66312934207
:1033680028D0FB8903F02003002B13D0084B1A88C0
:10337800074B5B889A421DD2054B1B887B81044B07
:103388005A88034B1A80024A7B89538012E000BF97
:10339800CC0700207F4B1A887E4B5B889A4209D95C
:1033A8007C4B1B887B817B4B5A887A4B1A80794AE5
:1033B8007B895380774B9B8845F21052934240F0AB
:1033C800EF80744B5B891846FFF74AFB724B4FF44A
:1033D80080721A61704B4FF400725A616F4B002271
:1033E800DA606D4B80225A616B4B80221A616A4BFE
:1033F8004FF400721A61674B5B8901339BB2184620
:10340800FFF72EFB644B4FF480721A61624B4FF446
:1034180000725A61614B0022DA605F4B80225A6168
:103428005D4B80221A615C4B4FF400721A61594B54
:103438005B8902339BB21846FFF712FB564B4FF4D9
:1034480080721A61544B4FF400725A61514B1B88B9
:10345800013B1A12514BDA604F4B80225A614E4B96
:1034680080221A614C4B4FF400721A61494B5B89F8
:1034780003339BB21846FFF7F3FA474B4FF48072B9
:103488001A61454B4FF400725A61424B1B88013B4D
:10349800424ADBB2D360404B80225A613E4B8022C5
:1034A8001A613D4B4FF400721A613A4B9B891846DA
:1034B800FFF7D6FA384B4FF480721A61364B4FF447
:1034C80000725A61354B0022DA60334B80225A6110
:1034D800314B80221A61304B4FF400721A612D4B28
:1034E8009B8901339BB21846FFF7BAFA2A4B4FF46F
:1034F80080721A61284B4FF400725A61274B0022E0
:10350800DA60254B80225A61234B80221A61224BB4
:103518004FF400721A611F4B9B8902339BB2184605
:10352800FFF79EFA1C4B4FF480721A611A4B4FF446
:1035380000725A61174B5B88013B1A12174BDA600D
:10354800154B80225A61144B80221A61124B4FF49A
:1035580000721A610F4B9B8903339BB21846FFF721
:103568007FFA0D4B4FF480721A610B4B4FF40072C7
:103578005A61084B5B88013B084ADBB2D360064BB3
:1035880080225A61044B80221A61034B4FF4007267
:103598001A610AE1CC07002000100140000C01402C
:1035A800844B5B891846FFF75BFA834B4FF48072B4
:1035B8001A61814B4FF400725A61804B0022DA6025
:1035C8007D4B80225A617C4B80221A617A4B4FF4E2
:1035D80000721A61784B4FF480721A61764B4FF47F
:1035E80000725A61754B0022DA60734B80225A616F
:1035F800714B80221A61704B4FF400721A616E4B46
:103608004FF480721A616C4B4FF400725A61694B27
:103618001B88013B1A12694BDA60674B80225A619A
:10362800654B80221A61644B4FF400721A61624B39
:103638004FF480721A61604B4FF400725A615D4B0F
:103648001B88013B5D4ADBB2D3605B4B80225A6129
:10365800594B80221A61584B4FF400721A61554B2E
:103668009B891846FFF7FCF9534B4FF480721A6197
:10367800514B4FF400725A61504B0022DA604E4BA6
:1036880080225A614C4B80221A614B4B4FF40072D6
:103698001A61494B4FF480721A61474B4FF400721C
:1036A8005A61464B0022DA60434B80225A61424BF2
:1036B80080221A61404B4FF400721A613E4B4FF45E
:1036C80080721A613C4B4FF400725A61394B5B8827
:1036D800013B1A12394BDA60374B80225A61364B5C
:1036E80080221A61344B4FF400721A61324B4FF446
:1036F80080721A61304B4FF400725A612D4B5B880F
:10370800013B2E4ADBB2D3602B4B80225A612A4BF5
:1037180080221A61284B4FF400721A6145E0FB7948
:10372800072B36D801A252F823F000BF55370008FE
:103738005F370008693700089B37000873370008AF
:103748007D3700088737000891370008FB8943F068
:103758003003FB811DE0FB8943F01003FB8118E077
:10376800FB8943F02003FB8113E0FB8943F0380316
:10377800FB810EE0FB8943F02803FB8109E0FB890C
:1037880043F01803FB8104E0FB8943F00803FB8145
:1037980000BF0323BB81FB8943F48053FB81FA8973
:1037A800BB8911461846FFF7E7F900BF1037BD4639
:1037B80080BD00BFCC07002000100140000C014074
:1037C80080B582B000AF03460A46FB801346BB8033
:1037D800BA88FB8811461846FFF714FAFFF706FA6D
:1037E8000C4B4FF480721A610A4B4FF400725A6105
:1037F800094B1A88094BDA60064B80225A61054B3F
:1038080080221A61034B4FF400721A6100BF083717
:10381800BD4680BD0010014090000020000C014012
:1038280080B582B000AF0346FB800B46BB801346D1
:103838007B807B884FF6FF72934200F08482754B41
:103848009B8849F24132934205D0724B9B8845F2DE
:103858001032934264D16F4B5B891846FFF700F929
:103868006D4B4FF480721A616B4B4FF400725A61C2
:10387800FB881B0A9AB2694BDA60674B80225A614F
:10388800654B80221A61644B4FF400721A61624BD7
:103898004FF480721A61604B4FF400725A61FB88D2
:1038A8005E4ADBB2D3605C4B80225A615A4B80225D
:1038B8001A61594B4FF400721A61564B9B8918468E
:1038C800FFF7CEF8544B4FF480721A61524B4FF405
:1038D80000725A61BB881B0A9AB2504BDA604E4B91
:1038E80080225A614C4B80221A614B4B4FF4007274
:1038F8001A61494B4FF480721A61474B4FF40072BA
:103908005A61BB88454ADBB2D360434B80225A6177
:10391800414B80221A61404B4FF400721A61E6E174
:103928003C4B9B8845F21052934279D1394B5B89C5
:103938001846FFF795F8384B4FF480721A61364BEA
:103948004FF400725A61FB881B0A9AB2334BDA6053
:10395800314B80225A61304B80221A612E4B4FF432
:1039680000721A612B4B5B8901339BB21846FFF733
:1039780077F8294B4FF480721A61274B4FF4007285
:103988005A61FB88254ADBB2D360234B80225A61F7
:10399800214B80221A61204B4FF400721A611D4B93
:1039A8009B891846FFF75CF81B4B4FF480721A612D
:1039B800194B4FF400725A61BB881B0A9AB2174B15
:1039C800DA60154B80225A61134B80221A61124B20
:1039D8004FF400721A610F4B9B8901339BB2184652
:1039E800FFF73EF80C4B4FF480721A610A4B4FF404
:1039F80000725A61BB88094ADBB2D360064B802249
:103A08005A61054B80221A61034B4FF400721A6108
:103A18006DE100BFCC07002000100140000C014000
:103A2800684B9B8841F66312934240F0D180654B06
:103A38009B79002B06D1634B1A88FB88D31A9BB25B
:103A4800013BFB805F4B5B891846FFF709F85E4B2B
:103A58004FF480721A615C4B4FF400725A61FB8814
:103A68001B0A9AB2594BDA60574B80225A61564B5F
:103A780080221A61544B4FF400721A61524B4FF472
:103A880080721A61504B4FF400725A61FB884F4A9A
:103A9800DBB2D3604C4B80225A614B4B80221A61B7
:103AA800494B4FF400721A61474B4FF480721A6108
:103AB800454B4FF400725A61FB881B0A9AB2434B7C
:103AC800DA60414B80225A613F4B80221A613E4B9B
:103AD8004FF400721A613C4B4FF480721A613A4BF2
:103AE8004FF400725A61FB88384ADBB2D360364B18
:103AF80080225A61344B80221A61334B4FF4007292
:103B08001A61304B9B891846FEF7AAFF2E4B4FF4DB
:103B180080721A612C4B4FF400725A61BB881B0AE1
:103B28009AB22A4BDA60284B80225A61264B8022AF
:103B38001A61254B4FF400721A61234B4FF48072BF
:103B48001A61214B4FF400725A61BB881F4ADBB2DD
:103B5800D3601D4B80225A611B4B80221A611A4B7D
:103B68004FF400721A61184B4FF480721A61164BA9
:103B78004FF400725A61BB881B0A9AB2134BDA6081
:103B8800114B80225A61104B80221A610E4B4FF460
:103B980000721A610C4B4FF480721A610A4B4FF491
:103BA80000725A61BB88094ADBB2D360064B802297
:103BB8005A61054B80221A61034B4FF400721A6157
:103BC80095E000BFCC07002000100140000C014028
:103BD8005F4B9B8846F6040293426FD15C4B9B79FE
:103BE800012B06D15A4B1A88FB88D31A9BB2013B8A
:103BF800FB80574B5B891846FEF732FF554B4FF455
:103C080080721A61534B4FF400725A61FB881B0A89
:103C18009AB2514BDA604F4B80225A614D4B802249
:103C28001A614C4B4FF400721A614A4B4FF4807280
:103C38001A61484B4FF400725A61FB88464ADBB25E
:103C4800D360444B80225A61424B80221A61414B17
:103C58004FF400721A613E4B9B891846FEF700FF2D
:103C68003C4B4FF480721A613A4B4FF400725A6120
:103C7800BB881B0A9AB2384BDA60364B80225A61ED
:103C8800344B80221A61334B4FF400721A61314B66
:103C98004FF480721A612F4B4FF400725A61BB883F
:103CA8002D4ADBB2D3602B4B80225A61294B8022EC
:103CB8001A61284B4FF400721A6118E0244B9B7963
:103CC800012B06D1224B1A88FB88D31A9BB2013BE1
:103CD800FB801F4B5B89FA8811461846FEF74CFF9C
:103CE8001B4B9B89BA8811461846FEF745FF194BAE
:103CF8004FF480725A61174B4FF400725A61144B9B
:103D08001A89154BDA60134B80225A61114B8022B5
:103D18001A61104B4FF400721A610E4B4FF4807207
:103D28001A610C4B4FF400725A610B4A7B88D360BE
:103D3800084B80225A61074B80221A61054B4FF4C9
:103D480000721A6100E000BF0837BD4680BD00BFA1
:103D5800CC07002000100140000C014000000000CA
:103D680090B583B000AF0346FB71BE20FEF778FE26
:103D78004B4B4FF480721A61494B4FF400725A61F1
:103D8800484B0522DA60464B80225A61444B802218
:103D98001A61434B4FF400721A61414B4FF4807221
:103DA8001A613F4B4FF400725A61FB791846FCF7D1
:103DB80089FB39A3D3E90023FCF7EEFB03460C4645
:103DC8001A462346374C10461946FCF7F7FD0346BA
:103DD800E360334B80225A61314B80221A61304BA9
:103DE8004FF400721A612E4B4FF480721A612C4BFB
:103DF8004FF400725A612B4B0122DA60284B802263
:103E08005A61274B80221A61254B4FF400721A61C0
:103E1800234B4FF480721A61214B4FF400725A61A0
:103E2800204BFF22DA601E4B80225A611C4B8022F5
:103E38001A611B4B4FF400721A61194B4FF48072D0
:103E48001A61174B4FF400725A61164B0022DA6060
:103E5800134B80225A61124B80221A61104B4FF487
:103E680000721A610E4B4FF480721A610C4B4FF4BA
:103E780000725A610B4B0022DA60094B80225A61AA
:103E8800074B80221A61064B4FF400721A6100BF7B
:103E98000C37BD4690BD00BF666666666666044020
:103EA80000100140000C014080B582B000AF03460D
:103EB800FB71FB79002B77D1804B00229A717F4BE5
:103EC800F0221A807D4B4FF4A0725A807B4B9B885E
:103ED80049F2413293420BD0784B9B8846F6040254
:103EE800934205D0754B9B8845F2103293421ED100
:103EF800724B2C221A81714B2A225A816F4B2B222A
:103F08009A816E4B9B8846F60402934206D06B4B0F
:103F18009B8845F21032934240F0C780674B4FF4BC
:103F2800A0721A80654B4FF4F0725A80BDE0634B63
:103F38009B8845F21052934214D1604B4FF4305293
:103F48001A815E4B4FF428525A815C4B4FF42C5225
:103F58009A815A4B4FF4F0721A80584B4FF44872BA
:103F68005A80A3E0554B9B8841F66312934211D1C6
:103F7800524B2C221A81514B2B225A814F4B2A2209
:103F88009A814E4B4FF4F0721A804C4B4FF44872A2
:103F98005A808BE0494B22221A81484B20225A81B1
:103FA800464B21229A8181E0444B01229A71434B6E
:103FB8004FF4A0721A80414BF0225A803F4B9B88E5
:103FC80049F24132934205D03C4B9B8845F210326E
:103FD800934209D1394B2C221A81384B2A225A8113
:103FE800364B2B229A814BE0344B9B8846F60402D1
:103FF800934209D1314B2C221A81304B2B225A8102
:104008002E4B2A229A813BE02C4B9B8845F210527A
:10401800934214D1294B4FF430521A81274B4FF455
:1040280028525A81254B4FF42C529A81234B4FF436
:1040380048721A80214B4FF4F0725A8020E01F4BCF
:104048009B8841F66312934211D11C4B2C221A8192
:104058001A4B2A225A81194B2B229A81174B4FF45B
:1040680048721A80154B4FF4F0725A8008E0134BCF
:1040780022221A81114B21225A81104B20229A8127
:104088000E4B9B8846F60402934205D00B4B9B8847
:1040980045F21032934209D1084B4FF4F0721A805E
:1040A800064B4FF4A0725A8000E000BF0020FFF7D3
:1040B80075F800BF0837BD4680BD00BFCC0700209B
:1040C80080B586B000AF904B9B698F4A43F00803D8
:1040D80093618D4B9B6903F008037B607B688A4B77
:1040E8009B69894A43F010039361874B9B6903F0EE
:1040F80010033B603B684FF4F863BB600123FB602F
:1041080001233B6103237B6107F1080319467F48BC
:10411800FCF7DCFD4FF6FF73BB6007F10803194697
:104128007B48FCF7D3FD3220FCF7CAFC01210020B4
:10413800FEF722FD3220FCF7C3FC0020FEF746FD07
:1041480003461A46734B9A80724B9B88FE2B0BD9F9
:10415800704B9B884FF6FF72934205D06D4B9B883E
:10416800B3F5134F40F0C880D320FEF779FCFEF773
:10417800BFFCFEF7BDFCFEF7BBFC03461A46654BC9
:104188009A80644B9B881B029AB2624B9A80FEF716
:10419800AFFC03461A465F4B9B8813439AB25D4BAC
:1041A8009A805C4B9B8849F24132934200F0A4808C
:1041B800BF20FEF755FCFEF79BFCFEF799FCFEF7C7
:1041C80097FCFEF795FC03461A46524B9A80514BD2
:1041D8009B881B029AB24F4B9A80FEF789FC0346D4
:1041E8001A464C4B9B8813439AB24A4B9A80494BC8
:1041F8009B8846F6040293427ED0D420FEF730FC1A
:10420800FEF776FCFEF774FCFEF772FC03461A46CE
:10421800404B9A803F4B9B881B029AB23D4B9A8039
:10422800FEF766FC03461A463A4B9B8813439AB23C
:10423800384B9A80374B9B8845F2103293425BD0BB
:104248004FF45A40FEF70CFCFEF752FC4FF45B406B
:10425800FEF706FCFEF74CFC03461A462D4B9A80E7
:104268002C4B9B881B029AB22A4B9A804FF45C40D5
:10427800FEF7F6FBFEF73CFC03461A46254B9B88E7
:1042880013439AB2234B9A80224B9B88B3F5004F75
:1042980003D1204B45F210529A801E4B9B8845F261
:1042A8001052934228D0A120FEF7DAFBFEF720FC3B
:1042B80003461A46174B9A80FEF71AFC03461A461D
:1042C800144B9A80134B9B881B029AB2114B9A800D
:1042D800FEF70EFC03461A460E4B9B8813439AB210
:1042E8000C4B9A800B4B9B8845F26172934203D129
:1042F800084B41F663129A80064B9B8849F241327B
:10430800934240F01F8107E0001002400010014076
:10431800000C0140CC070020CF20FEF7A1FB0020B5
:10432800FEF7C2FBC120FEF7BFFB3020FEF7BCFB47
:10433800ED20FEF795FB6420FEF7B6FB0320FEF7A1
:10434800B3FB1220FEF7B0FB8120FEF7ADFBE8209F
:10435800FEF786FB8520FEF7A7FB1020FEF7A4FBDF
:104368007A20FEF7A1FBCB20FEF77AFB3920FEF777
:104378009BFB2C20FEF798FB0020FEF795FB3420D2
:10438800FEF792FB0220FEF78FFBF720FEF768FB93
:104398002020FEF789FBEA20FEF762FB0020FEF7EB
:1043A80083FB0020FEF780FBC020FEF759FB1B2093
:1043B800FEF77AFBC120FEF753FB0120FEF774FBE2
:1043C800C520FEF74DFB3020FEF76EFB3020FEF7D0
:1043D8006BFBC720FEF744FBB720FEF765FB3620D2
:1043E800FEF73EFB4820FEF75FFB3A20FEF738FB5E
:1043F8005520FEF759FBB120FEF732FB0020FEF7EF
:1044080053FB1A20FEF750FBB620FEF729FB0A20C3
:10441800FEF74AFBA220FEF747FBF220FEF720FB3F
:104428000020FEF741FB2620FEF71AFB0120FEF7CD
:104438003BFBE020FEF714FB0F20FEF735FB2A209C
:10444800FEF732FB2820FEF72FFB0820FEF72CFB97
:104458000E20FEF729FB0820FEF726FB5420FEF766
:1044680023FBA920FEF720FB4320FEF71DFB0A20B3
:10447800FEF71AFB0F20FEF717FB0020FEF714FBD0
:104488000020FEF711FB0020FEF70EFB0020FEF7D0
:104498000BFBE120FEF7E4FA0020FEF705FB1520F0
:1044A800FEF702FB1720FEF7FFFA0720FEF7FCFADB
:1044B8001120FEF7F9FA0620FEF7F6FA2B20FEF790
:1044C800F3FA5620FEF7F0FA3C20FEF7EDFA052045
:1044D800FEF7EAFA1020FEF7E7FA0F20FEF7E4FAF3
:1044E8003F20FEF7E1FA3F20FEF7DEFA0F20FEF745
:1044F800DBFA2B20FEF7B4FA0020FEF7D5FA0020ED
:10450800FEF7D2FA0120FEF7CFFA3F20FEF7CCFAE9
:104518002A20FEF7A5FA0020FEF7C6FA0020FEF7CB
:10452800C3FA0020FEF7C0FAEF20FEF7BDFA11200B
:10453800FEF796FA7820FCF7C3FA2920FEF790FADE
:1045480003F0D8BC584B9B8846F60402934240F0CF
:10455800AD801120FEF784FA1420FCF7B1FAD020C0
:10456800FEF77EFA0720FEF79FFA4220FEF79CFA34
:104578001D20FEF799FAD120FEF772FA0020FEF707
:1045880093FA1A20FEF790FA0920FEF78DFAD22046
:10459800FEF766FA0120FEF787FA2220FEF784FA72
:1045A800C020FEF75DFA1020FEF77EFA3B20FEF7EA
:1045B8007BFA0020FEF778FA0220FEF775FA112040
:1045C800FEF772FAC520FEF74BFA0320FEF76CFAE5
:1045D800C820FEF745FA0020FEF766FA2520FEF708
:1045E80063FA2120FEF760FA0520FEF75DFA002045
:1045F800FEF75AFA0A20FEF757FA6520FEF754FA32
:104608002520FEF751FA7720FEF74EFA5020FEF7E4
:104618004BFA0F20FEF748FA0020FEF745FAF8207B
:10462800FEF71EFA0120FEF73FFAFE20FEF718FA01
:104638000020FEF739FA0220FEF736FA2020FEF7AE
:104648000FFA3620FEF70CFA0820FEF72DFA3A206A
:10465800FEF706FA5520FEF727FA2B20FEF700FA98
:104668000020FEF721FA0020FEF71EFA0120FEF7CF
:104678001BFA3F20FEF718FA2A20FEF7F1F900206E
:10468800FEF712FA0020FEF70FFA0120FEF70CFAE7
:10469800DF20FEF709FA7820FCF712FA2920FEF746
:1046A800DFF903F027BC00BFCC070020034B9B8831
:1046B80045F21032934240F07C8701E0CC0700209D
:1046C800ED20FEF7CDF90120FEF7EEF9FE20FEF70A
:1046D800EBF9EE20FEF7C4F9DE20FEF7E5F921201C
:1046E800FEF7E2F9F120FEF7BBF90120FEF7DCF94D
:1046F800DF20FEF7B5F91020FEF7D6F9C420FEF743
:10470800AFF98F20FEF7D0F9C620FEF7A9F90020EF
:10471800FEF7CAF9E220FEF7C7F9E220FEF7C4F96E
:10472800E220FEF7C1F9BF20FEF79AF9AA20FEF7AA
:10473800BBF9B020FEF794F90D20FEF7B5F900207B
:10474800FEF7B2F90D20FEF7AFF90020FEF7ACF93D
:104758001120FEF7A9F90020FEF7A6F91920FEF7A7
:10476800A3F90020FEF7A0F92120FEF79DF900200B
:10477800FEF79AF92D20FEF797F90020FEF794F935
:104788003D20FEF791F90020FEF78EF95D20FEF737
:104798008BF90020FEF788F95D20FEF785F90020E7
:1047A800FEF782F9B120FEF75BF98020FEF77CF96D
:1047B8000020FEF779F98B20FEF776F90020FEF746
:1047C80073F99620FEF770F90020FEF76DF9B22014
:1047D800FEF746F90020FEF767F90020FEF764F9B6
:1047E8000220FEF761F90020FEF75EF90320FEF7CC
:1047F8005BF90020FEF758F9B320FEF731F90020E5
:10480800FEF752F90020FEF74FF90020FEF74CF9A9
:104818000020FEF749F90020FEF746F90020FEF7D0
:1048280043F90020FEF740F90020FEF73DF900208B
:10483800FEF73AF90020FEF737F90020FEF734F9C1
:104848000020FEF731F90020FEF72EF90020FEF7D0
:104858002BF90020FEF728F90020FEF725F90020A3
:10486800FEF722F90020FEF71FF90020FEF71CF9D9
:104878000020FEF719F90020FEF716F90020FEF7D0
:1048880013F90020FEF710F90020FEF70DF9B42007
:10489800FEF7E6F88B20FEF707F90020FEF704F98B
:1048A8009620FEF701F90020FEF7FEF8A120FEF79A
:1048B800FBF80020FEF7F8F8B520FEF7D1F8022043
:1048C800FEF7F2F80020FEF7EFF80320FEF7ECF809
:1048D8000020FEF7E9F80420FEF7E6F80020FEF7CE
:1048E800E3F8B620FEF7BCF80020FEF7DDF800205C
:1048F800FEF7DAF8B720FEF7B3F80020FEF7D4F891
:104908000020FEF7D1F83F20FEF7CEF80020FEF792
:10491800CBF85E20FEF7C8F80020FEF7C5F8642043
:10492800FEF7C2F80020FEF7BFF88C20FEF7BCF8AF
:104938000020FEF7B9F8AC20FEF7B6F80020FEF725
:10494800B3F8DC20FEF7B0F80020FEF7ADF87020D1
:10495800FEF7AAF80020FEF7A7F89020FEF7A4F8C3
:104968000020FEF7A1F8EB20FEF79EF80020FEF7E6
:104978009BF8DC20FEF798F80020FEF795F8B820A1
:10498800FEF76EF80020FEF78FF80020FEF78CF88F
:104998000020FEF789F80020FEF786F80020FEF7D1
:1049A80083F80020FEF780F80020FEF77DF800204D
:1049B800FEF77AF8BA20FEF753F82420FEF774F8C9
:1049C8000020FEF771F80020FEF76EF80020FEF7D1
:1049D8006BF8C120FEF744F82020FEF765F80020A8
:1049E800FEF762F85420FEF75FF80020FEF75CF847
:1049F800FF20FEF759F80020FEF756F8C220FEF710
:104A08002FF80A20FEF750F80020FEF74DF8042092
:104A1800FEF74AF80020FEF747F8C320FEF720F813
:104A28003C20FEF741F80020FEF73EF83A20FEF75A
:104A38003BF80020FEF738F83920FEF735F800205B
:104A4800FEF732F83720FEF72FF80020FEF72CF893
:104A58003C20FEF729F80020FEF726F83620FEF75E
:104A680023F80020FEF720F83220FEF71DF800207A
:104A7800FEF71AF82F20FEF717F80020FEF714F8B3
:104A88002C20FEF711F80020FEF70EF82920FEF77B
:104A98000BF80020FEF708F82620FEF705F800209E
:104AA800FEF702F82420FDF7FFFF0020FDF7FCFFCA
:104AB8002420FDF7F9FF0020FDF7F6FF2320FDF77E
:104AC800F3FF0020FDF7F0FF3C20FDF7EDFF00208D
:104AD800FDF7EAFF3620FDF7E7FF0020FDF7E4FFCA
:104AE8003220FDF7E1FF0020FDF7DEFF2F20FDF764
:104AF800DBFF0020FDF7D8FF2C20FDF7D5FF0020B5
:104B0800FDF7D2FF2920FDF7CFFF0020FDF7CCFFEE
:104B18002620FDF7C9FF0020FDF7C6FF2420FDF77A
:104B2800C3FF0020FDF7C0FF2420FDF7BDFF0020D4
:104B3800FDF7BAFF2320FDF7B7FF0020FDF7B4FF0C
:104B4800C420FDF78DFF6220FDF7AEFF0020FDF7C2
:104B5800ABFF0520FDF7A8FF0020FDF7A5FF842087
:104B6800FDF7A2FF0020FDF79FFFF020FDF79CFF57
:104B78000020FDF799FF1820FDF796FF0020FDF7AC
:104B880093FFA420FDF790FF0020FDF78DFF18206C
:104B9800FDF78AFF0020FDF787FF5020FDF784FF0F
:104BA8000020FDF781FF0C20FDF77EFF0020FDF7B8
:104BB8007BFF1720FDF778FF0020FDF775FF952094
:104BC800FDF772FF0020FDF76FFFF320FDF76CFF84
:104BD8000020FDF769FFE620FDF766FF0020FDF7DE
:104BE80063FFC520FDF73CFF3220FDF75DFF002085
:104BF800FDF75AFF4420FDF757FF0020FDF754FF4B
:104C08006520FDF751FF0020FDF74EFF7620FDF7E8
:104C18004BFF0020FDF748FF8820FDF745FF0020E7
:104C2800FDF742FFC620FDF71BFF2020FDF73CFFE4
:104C38000020FDF739FF1720FDF736FF0020FDF7AC
:104C480033FF0120FDF730FF0020FDF72DFFC720BF
:104C5800FDF706FF0020FDF727FF0020FDF724FFE2
:104C68000020FDF721FF0020FDF71EFFC820FDF7FB
:104C7800F7FE0020FDF718FF0020FDF715FF0020C4
:104C8800FDF712FF0020FDF70FFFC920FDF7E8FE32
:104C98000020FDF709FF0020FDF706FF0020FDF7C3
:104CA80003FF0020FDF700FF0020FDF7FDFE0020B8
:104CB800FDF7FAFE0020FDF7F7FE0020FDF7F4FEF1
:104CC8000020FDF7F1FE0020FDF7EEFE0020FDF7C5
:104CD800EBFE0020FDF7E8FE0020FDF7E5FE0020D2
:104CE800FDF7E2FE0020FDF7DFFE0020FDF7DCFE09
:104CF800E020FDF7B5FE1620FDF7D6FE0020FDF7F3
:104D0800D3FE1C20FDF7D0FE0020FDF7CDFE2120AC
:104D1800FDF7CAFE0020FDF7C7FE3620FDF7C4FEEA
:104D28000020FDF7C1FE4620FDF7BEFE0020FDF77E
:104D3800BBFE5220FDF7B8FE0020FDF7B5FE64204B
:104D4800FDF7B2FE0020FDF7AFFE7A20FDF7ACFEBE
:104D58000020FDF7A9FE8B20FDF7A6FE0020FDF739
:104D6800A3FE9920FDF7A0FE0020FDF79DFEA820D8
:104D7800FDF79AFE0020FDF797FEB920FDF794FE97
:104D88000020FDF791FEC420FDF78EFE0020FDF700
:104D98008BFECA20FDF788FE0020FDF785FED22095
:104DA800FDF782FE0020FDF77FFED920FDF77CFE8F
:104DB8000020FDF779FEE020FDF776FE0020FDF7E4
:104DC80073FEF320FDF770FE0020FDF76DFEE12075
:104DD800FDF746FE1620FDF767FE0020FDF764FE8E
:104DE8001C20FDF761FE0020FDF75EFE2220FDF786
:104DF8005BFE0020FDF758FE3620FDF755FE00202B
:104E0800FDF752FE4520FDF74FFE0020FDF74CFE52
:104E18005220FDF749FE0020FDF746FE6420FDF70D
:104E280043FE0020FDF740FE7A20FDF73DFE0020FE
:104E3800FDF73AFE8B20FDF737FE0020FDF734FE24
:104E48009920FDF731FE0020FDF72EFEA820FDF782
:104E58002BFE0020FDF728FEB920FDF725FE0020D7
:104E6800FDF722FEC420FDF71FFE0020FDF71CFE03
:104E7800CA20FDF719FE0020FDF716FED220FDF727
:104E880013FE0020FDF710FED820FDF70DFE0020D0
:104E9800FDF70AFEE020FDF707FE0020FDF704FEFF
:104EA800F320FDF701FE0020FDF7FEFDE220FDF7EF
:104EB800D7FD0520FDF7F8FD0020FDF7F5FD0B20D7
:104EC800FDF7F2FD0020FDF7EFFD1B20FDF7ECFDDF
:104ED8000020FDF7E9FD3420FDF7E6FD0020FDF791
:104EE800E3FD4420FDF7E0FD0020FDF7DDFD4F2048
:104EF800FDF7DAFD0020FDF7D7FD6120FDF7D4FDB1
:104F08000020FDF7D1FD7920FDF7CEFD0020FDF74B
:104F1800CBFD8820FDF7C8FD0020FDF7C5FD9720D3
:104F2800FDF7C2FD0020FDF7BFFDA620FDF7BCFD83
:104F38000020FDF7B9FDB720FDF7B6FD0020FDF70D
:104F4800B3FDC220FDF7B0FD0020FDF7ADFDC72081
:104F5800FDF7AAFD0020FDF7A7FDD120FDF7A4FD70
:104F68000020FDF7A1FDD620FDF79EFD0020FDF7EE
:104F78009BFDDD20FDF798FD0020FDF795FDF32052
:104F8800FDF792FD0020FDF78FFDE320FDF768FD9A
:104F98000520FDF789FD0020FDF786FD0A20FDF7B5
:104FA80083FD0020FDF780FD1C20FDF77DFD00201E
:104FB800FDF77AFD3320FDF777FD0020FDF774FD3E
:104FC8004420FDF771FD0020FDF76EFD5020FDF730
:104FD8006BFD0020FDF768FD6220FDF765FD0020F0
:104FE800FDF762FD7820FDF75FFD0020FDF75CFD11
:104FF8008820FDF759FD0020FDF756FD9720FDF7A5
:1050080053FD0020FDF750FDA620FDF74DFD0020C3
:10501800FDF74AFDB720FDF747FD0020FDF744FDE9
:10502800C220FDF741FD0020FDF73EFDC720FDF73A
:105038003BFD0020FDF738FDD120FDF735FD0020B0
:10504800FDF732FDD520FDF72FFD0020FDF72CFDE3
:10505800DD20FDF729FD0020FDF726FDF320FDF7F3
:1050680023FD0020FDF720FDE420FDF7F9FC0120D9
:10507800FDF71AFD0020FDF717FD0120FDF714FDCF
:105088000020FDF711FD0220FDF70EFD0020FDF7C1
:105098000BFD2A20FDF708FD0020FDF705FD3C204B
:1050A800FDF702FD0020FDF7FFFC4B20FDF7FCFC9F
:1050B8000020FDF7F9FC5D20FDF7F6FC0020FDF768
:1050C800F3FC7420FDF7F0FC0020FDF7EDFC8420D4
:1050D800FDF7EAFC0020FDF7E7FC9320FDF7E4FC70
:1050E8000020FDF7E1FCA220FDF7DEFC0020FDF723
:1050F800DBFCB320FDF7D8FC0020FDF7D5FCBE2073
:10510800FDF7D2FC0020FDF7CFFCC420FDF7CCFC56
:105118000020FDF7C9FCCD20FDF7C6FC0020FDF7F7
:10512800C3FCD320FDF7C0FC0020FDF7BDFCDD204B
:10513800FDF7BAFC0020FDF7B7FCF320FDF7B4FC3F
:105148000020FDF7B1FCE520FDF78AFC0020FDF703
:10515800ABFC0020FDF7A8FC0020FDF7A5FC002013
:10516800FDF7A2FC0220FDF79FFC0020FDF79CFC48
:105178002920FDF799FC0020FDF796FC3C20FDF75F
:1051880093FC0020FDF790FC4B20FDF78DFC0020E0
:10519800FDF78AFC5D20FDF787FC0020FDF784FC05
:1051A8007420FDF781FC0020FDF77EFC8420FDF7CC
:1051B8007BFC0020FDF778FC9320FDF775FC0020B0
:1051C800FDF772FCA220FDF76FFC0020FDF76CFCD8
:1051D800B320FDF769FC0020FDF766FCBE20FDF753
:1051E80063FC0020FDF760FCC420FDF75DFC002097
:1051F800FDF75AFCCD20FDF757FC0020FDF754FCC5
:10520800D320FDF751FC0020FDF74EFCDC20FDF714
:105218004BFC0020FDF748FCF320FDF745FC00207F
:10522800FDF742FCE620FDF71BFC1120FDF73CFCD6
:105238000020FDF739FC3420FDF736FC0020FDF78F
:1052480033FC5620FDF730FC0020FDF72DFC7620BE
:10525800FDF72AFC0020FDF727FC7720FDF724FC4A
:105268000020FDF721FC6620FDF71EFC0020FDF75D
:105278001BFC8820FDF718FC0020FDF715FC992081
:10528800FDF712FC0020FDF70FFCBB20FDF70CFC1E
:105298000020FDF709FC9920FDF706FC0020FDF72A
:1052A80003FC6620FDF700FC0020FDF7FDFB552000
:1052B800FDF7FAFB0020FDF7F7FB5520FDF7F4FB9F
:1052C8000020FDF7F1FB4520FDF7EEFB0020FDF780
:1052D800EBFB4320FDF7E8FB0020FDF7E5FB44204E
:1052E800FDF7E2FB0020FDF7DFFBE720FDF7B8FB49
:1052F8003220FDF7D9FB0020FDF7D6FB5520FDF73E
:10530800D3FB0020FDF7D0FB7620FDF7CDFB002076
:10531800FDF7CAFB6620FDF7C7FB0020FDF7C4FBBD
:105328006720FDF7C1FB0020FDF7BEFB6720FDF7F6
:10533800BBFB0020FDF7B8FB8720FDF7B5FB00207D
:10534800FDF7B2FB9920FDF7AFFB0020FDF7ACFBA2
:10535800BB20FDF7A9FB0020FDF7A6FB9920FDF770
:10536800A3FB0020FDF7A0FB7720FDF79DFB0020A5
:10537800FDF79AFB4420FDF797FB0020FDF794FB0F
:105388005620FDF791FB0020FDF78EFB2320FDF74B
:105398008BFB0020FDF788FB3320FDF785FB002001
:1053A800FDF782FB4520FDF77FFB0020FDF77CFB26
:1053B800E820FDF755FB0020FDF776FB0020FDF700
:1053C80073FB9920FDF770FB0020FDF76DFB87202C
:1053D800FDF76AFB0020FDF767FB8820FDF764FBFB
:1053E8000020FDF761FB7720FDF75EFB0020FDF74D
:1053F8005BFB6620FDF758FB0020FDF755FB882076
:10540800FDF752FB0020FDF74FFBAA20FDF74CFBF0
:105418000020FDF749FBBB20FDF746FB0020FDF708
:1054280043FB9920FDF740FB0020FDF73DFB66207C
:10543800FDF73AFB0020FDF737FB5520FDF734FB5D
:105448000020FDF731FB5520FDF72EFB0020FDF76E
:105458002BFB4420FDF728FB0020FDF725FB44200B
:10546800FDF722FB0020FDF71FFB5520FDF71CFB75
:105478000020FDF719FBE920FDF7F2FAAA20FDF755
:1054880013FB0020FDF710FB0020FDF70DFB0020AB
:10549800FDF70AFB0020FDF7E3FAAA20FDF704FB5D
:1054A800CF20FDF7DDFA0020FDF7FEFA0020FDF71A
:1054B800FBFA0020FDF7F8FA0020FDF7F5FA0020C6
:1054C800FDF7F2FA0020FDF7EFFA0020FDF7ECFAFD
:1054D8000020FDF7E9FA0020FDF7E6FA0020FDF7C5
:1054E800E3FA0020FDF7E0FA0020FDF7DDFA0020DE
:1054F800FDF7DAFA0020FDF7D7FA0020FDF7D4FA15
:105508000020FDF7D1FA0020FDF7CEFAF020FDF7D4
:10551800A7FA0020FDF7C8FA5020FDF7C5FA0020C9
:10552800FDF7C2FA0020FDF7BFFA0020FDF7BCFA2C
:10553800F320FDF795FA0020FDF7B6FAF920FDF7FC
:105548008FFA0620FDF7B0FA1020FDF7ADFA2920F2
:10555800FDF7AAFA0020FDF7A7FA3A20FDF780FA2E
:105568005520FDF7A1FA1120FDF77AFA6420FBF720
:10557800A7FA2920FDF774FA3520FDF771FA002003
:10558800FDF792FA5120FDF76BFAFF20FDF78CFA30
:105598005320FDF765FA2C20FDF786FA5520FDF714
:1055A8005FFA8220FDF780FA2C20FDF759FA02F005
:1055B800A1BC044B9B8845F21052934240F082876D
:1055C80002E000BFCC07002055214FF47040FDF7E2
:1055D800D3FAAA214FF20100FDF7CEFA52214FF279
:1055E8000200FDF7C9FA08214FF20300FDF7C4FADB
:1055F80001214FF20400FDF7BFFA0D214FF43040AE
:10560800FDF7BAFA0D214BF20100FDF7B5FA0D21AD
:105618004BF20200FDF7B0FA34214FF43640FDF7A3
:10562800ABFA34214BF20160FDF7A6FA34214BF2B4
:105638000260FDF7A1FA0D214FF43140FDF79CFA05
:105648000D214BF20110FDF797FA0D214BF20210D4
:10565800FDF792FA34214FF43740FDF78DFA3421E3
:105668004BF20170FDF788FA34214BF20270FDF716
:1056780083FA00214FF43240FDF77EFA00214BF205
:105688000120FDF779FA00214BF20220FDF774FAA8
:1056980024214FF43840FDF76FFA24214BF601001E
:1056A800FDF76AFA24214BF60200FDF765FA01219D
:1056B8004FF43F40FDF760FA0F214FF43340FDF7F8
:1056C8005BFA0F214BF20130FDF756FA0F214BF22E
:1056D8000230FDF751FA34214FF43940FDF74CFA06
:1056E80034214BF60110FDF747FA34214BF602102E
:1056F800FDF742FA08214FF43540FDF73DFA08213D
:105708004BF20150FDF738FA08214BF20250FDF731
:1057180033FA03214FF44240FDF72EFA24214FF4C7
:105728003A40FDF729FA24214BF60120FDF724FA27
:1057380024214BF60220FDF71FFA00214FF43C40CC
:10574800FDF71AFA78214BF60140FDF715FA00210A
:105758004BF60240FDF710FA00214FF43D40FDF7EB
:105768000BFA78214BF60150FDF706FA00214BF6AB
:105778000250FDF701FA00214FF43E40FDF7FCF915
:1057880064214BF60160FDF7F7F900214FF4514011
:10579800FDF7F2F933214DF20110FDF7EDF9002183
:1057A8004DF20210FDF7E8F934214DF20310FDF730
:1057B800E3F900214DF20410FDF7DEF93A214DF22C
:1057C8000510FDF7D9F900214DF20610FDF7D4F9BF
:1057D8004A214DF20710FDF7CFF900214DF20810CC
:1057E800FDF7CAF95C214DF20910FDF7C5F9002152
:1057F8004DF20A10FDF7C0F981214DF20B10FDF7AB
:10580800BBF900214DF20C10FDF7B6F9A6214DF2B7
:105818000D10FDF7B1F900214DF20E10FDF7ACF9AE
:10582800E5214DF20F10FDF7A7F901214DF21010F7
:10583800FDF7A2F913214DF21110FDF79DF9012191
:105848004DF21210FDF798F954214DF21310FDF79F
:1058580093F901214DF21410FDF78EF982214DF2D2
:105868001510FDF789F901214DF21610FDF784F99D
:10587800CA214DF21710FDF77FF902214DF21810D9
:10588800FDF77AF900214DF21910FDF775F902219B
:105898004DF21A10FDF770F901214DF21B10FDF7BA
:1058A8006BF902214DF21C10FDF766F934214DF217
:1058B8001D10FDF761F902214DF21E10FDF75CF98C
:1058C80067214DF21F10FDF757F902214DF2201004
:1058D800FDF752F984214DF22110FDF74DF902210F
:1058E8004DF22210FDF748F9A4214DF22310FDF7DF
:1058F80043F902214DF22410FDF73EF9B7214DF28C
:105908002510FDF739F902214DF22610FDF734F97B
:10591800CF214DF22710FDF72FF902214DF2281063
:10592800FDF72AF9DE214DF22910FDF725F90221AC
:105938004DF22A10FDF720F9F2214DF22B10FDF758
:105948001BF902214DF22C10FDF716F9FE214DF23C
:105958002D10FDF711F903214DF22E10FDF70CF96A
:1059680010214DF22F10FDF707F903214DF23010E9
:10597800FDF702F933214DF23110FDF7FDF803214F
:105988004DF23210FDF7F8F86D214DF23310FDF7A6
:10599800F3F800214FF45240FDF7EEF833214DF2B1
:1059A8000120FDF7E9F800214DF20220FDF7E4F8A7
:1059B80034214DF20320FDF7DFF800214DF20420D9
:1059C800FDF7DAF83A214DF20520FDF7D5F8002168
:1059D8004DF20620FDF7D0F84A214DF20720FDF7D9
:1059E800CBF800214DF20820FDF7C6F85C214DF2F6
:1059F8000920FDF7C1F800214DF20A20FDF7BCF897
:105A080081214DF20B20FDF7B7F800214DF20C2053
:105A1800FDF7B2F8A6214DF20D20FDF7ADF80021F3
:105A28004DF20E20FDF7A8F8E5214DF20F20FDF705
:105A3800A3F801214DF21020FDF79EF813214DF235
:105A48001120FDF799F801214DF21220FDF794F885
:105A580054214DF21320FDF78FF801214DF2142047
:105A6800FDF78AF882214DF21520FDF785F801210E
:105A78004DF21620FDF780F8CA214DF21720FDF7E8
:105A88007BF802214DF21820FDF776F800214DF23F
:105A98001920FDF771F802214DF21A20FDF76CF874
:105AA80001214DF21B20FDF767F802214DF21C2061
:105AB800FDF762F834214DF21D20FDF75DF8022153
:105AC8004DF21E20FDF758F867214DF21F20FDF713
